:100000000C94F40018950000189500001895000055
:10001000189500001895000018950000189500002C
:10002000189500001895000018950000189500001C
:1000300018950000189500000C94E75B18950000D7
:1000400018950000189500001895000018950000FC
:100050000C94735E18950000189500001895000028
:10006000189500000C94D6601895000018950000B3
:1000700018950000189500001895000018950000CC
:1000800018950000189500001895000018950000BC
:1000900018950000189500001895000018950000AC
:1000A000189500001895000018950000189500009C
:1000B000189500001895000018950000189500008C
:1000C000189500001895000018950000189500007C
:1000D000189500001895000018950000189500006C
:1000E000189500001895000018950000189500005C
:1000F000189500001895000018950000189500004C
:10010000189500001895000018950000189500003B
:10011000189500001895000018950000189500002B
:10012000189500001895000018950000189500001B
:10013000189500000C94FE5E1895000018950000BC
:1001400018950000189500001895000018950000FB
:1001500018950000189500001895000018950000EB
:1001600018950000189500001895000018950000DB
:1001700018950000189500001895000018950000CB
:1001800018950000189500001895000018950000BB
:1001900018950000189500001895000018950000AB
:1001A000189500001895000018950000189500009B
:1001B000189500001895000018950000189500008B
:1001C000189500001895000018950000189500007B
:1001D000189500001895000018950000189500006B
:1001E00018950000189500008FEF8DBFC0E8E8E972
:1001F0004E2E8FE38EBFDFE3FEE35F2E009078008C
:100200008FE38093780081E078ED74BF8093800065
:10021000EEEFFFE1A0E0B0E288278D933197E9F798
:10022000662471E07093210670E07093520083E0C1
:10023000A0E5B0E08D939C9193708917E1F78091D0
:10024000510081FFFCCF78ED74BF71E070934000E6
:1002500078ED74BF70E07093410077E07093A20076
:10026000F89478E07093810688E1A4EABAE08D936F
:1002700083E08D938EE28D9388E98C9381E090E00A
:100280000E94356278E07093410688E1A4EAB8E004
:100290008D9383E08D9385EC8D938CEA8C93809184
:1002A000A3088F7C80618093A30881E090E00E9486
:1002B000356278E07093A10678E07093A50670E14E
:1002C0007093A10670E17093A50670E27093A10689
:1002D00070E27093A50670E27093810670E47093EB
:1002E000810671E07093810672E07093810670E17F
:1002F0007093810670E17093850670E17093020639
:1003000078E17093140678E07093020678E17093B8
:10031000130670E87093210670E87093260670E467
:100320007093020678E17093160670E470930206EB
:1003300078E17093170670E27093020678E170938B
:10034000150600E010E020E030E0AEE4B2E20D93EC
:100350001D932D933C9300E010E020E030E0A2E5F7
:10036000B2E20D931D932D933C9370917D227F7784
:1003700070937D2270917D227F7B70937D2270919E
:100380007D22777F70937D2270917D227B7F709399
:100390007D2270917D227E7F70937D227091C92293
:1003A0007F777093C92280E08093C62280E080939B
:1003B000C72280E08093C5227091C9227F7B709311
:1003C000C92280E090E0A8E0B5E28D939C93709103
:1003D000C9227B7F7093C9227091C9227D7F70935F
:1003E000C9227091CC0178607093CC010E94116F8A
:1003F000E0E0F0E0ADE4B5E20E94426EADE4B5E2CB
:100400000D911C91083E5DEF150718F011F00C944A
:100410000B020C941F020E94116FE0E0F0E000E07C
:1004200010E00093012010930220A1E0B0E20E94AE
:10043000256E80E090E0ADE4B5E28D939C9380E082
:100440008093442570EB7093610670E170936506AC
:1004500080ED8093C00974E07093610678E070933A
:10046000610670E17093610670E17093650680E04B
:1004700098EFA3E5B6E28D939C9380E094E0A5E528
:10048000B6E28D939C938FE190E0A7E5B6E28D9361
:100490009C938FEF9FEFA9E5B6E28D939C938FEF2E
:1004A00097E0ABE5B6E28D939C938FE198EFADE5D5
:1004B000B6E28D939C9385E491EAAFE5B6E28D9325
:1004C0009C9380E29DEFA1E6B6E28D939C9389E137
:1004D0009EEFA3E6B6E28D939C938DE19CEEA5E69C
:1004E000B6E28D939C9388E092E0A7E6B6E28D9306
:1004F0009C938CE196E8A9E6B6E28D939C93E1E0AB
:10050000F0E00E94A96178E07093660686E990E0C9
:100510000E94356278E07093650686E990E00E945B
:10052000356281E0D2018C9381E00E94786E0E9456
:10053000E118229681E00E94746E86E990E00E94A4
:10054000356281E1D2018C9381E00E94786E0E9435
:10055000E118229681E00E94746E84EF91E00E947F
:10056000356281EBD2018C9381E00E94786E0E940B
:10057000E118229681E00E94746E81E0D2018C9392
:1005800081E00E94786E0E94FB18229681E00E9412
:10059000746E8CE2D2018C9381E00E94786E0E948E
:1005A000FB18229681E00E94746E8DE2D2018C933A
:1005B00081E00E94786E0E94FB18229681E00E94E2
:1005C000746E82EBD2018C9381E00E94786E0E945F
:1005D000E118229681E00E94746E81E0D2018C9332
:1005E00081E00E94786E0E94FB18229681E00E94B2
:1005F000746E8CE2D2018C9381E00E94786E0E942E
:10060000FB18229681E00E94746E8DE2D2018C93D9
:1006100081E00E94786E0E94FB18229681E00E9481
:10062000746E83EBD2018C9381E00E94786E0E94FD
:10063000E118229681E00E94746E81E0D2018C93D1
:1006400081E00E94786E0E94FB18229681E00E9451
:10065000746E8CE2D2018C9381E00E94786E0E94CD
:10066000FB18229681E00E94746E8DE2D2018C9379
:1006700081E00E94786E0E94FB18229681E00E9421
:10068000746E81E0D2018C9381E00E94786E0E94AA
:10069000FB18229681E00E94746E8CE2D2018C934A
:1006A00081E00E94786E0E94FB18229681E00E94F1
:1006B000746E8DE2D2018C9381E00E94786E0E946C
:1006C000FB18229681E00E94746E84EBD2018C9319
:1006D00081E00E94786E0E94E118229681E00E94DB
:1006E000746E87E0D2018C9381E00E94786E0E9444
:1006F000FB18229681E00E94746E80ECD2018C93EC
:1007000081E00E94786E0E94E118229681E00E94AA
:10071000746E8AE2D2018C9381E00E94786E0E940E
:10072000FB18229681E00E94746E82E0D2018C93C5
:1007300081E00E94786E0E94FB18229681E00E9460
:10074000746E84E8D2018C9381E00E94786E0E94DE
:10075000FB18229681E00E94746E81ECD2018C938A
:1007600081E00E94786E0E94E118229681E00E944A
:10077000746E85ECD2018C9381E00E94786E0E94A9
:10078000FB18229681E00E94746E82ECD2018C9359
:1007900081E00E94786E0E94E118229681E00E941A
:1007A000746E8AE0D2018C9381E00E94786E0E9480
:1007B000FB18229681E00E94746E80E0D2018C9337
:1007C00081E00E94786E0E94FB18229681E00E94D0
:1007D000746E83ECD2018C9381E00E94786E0E944B
:1007E000E118229681E00E94746E8AE8D2018C930F
:1007F00081E00E94786E0E94FB18229681E00E94A0
:10080000746E8AE2D2018C9381E00E94786E0E941D
:10081000FB18229681E00E94746E84ECD2018C93C6
:1008200081E00E94786E0E94E118229681E00E9489
:10083000746E8AE8D2018C9381E00E94786E0E94E7
:10084000FB18229681E00E94746E8EEED2018C938A
:1008500081E00E94786E0E94FB18229681E00E943F
:10086000746E85ECD2018C9381E00E94786E0E94B8
:10087000E118229681E00E94746E8EE0D2018C9382
:1008800081E00E94786E0E94FB18229681E00E940F
:10089000746E80E2D2018C9381E00E94786E0E9497
:1008A000E118229681E00E94746E86E3D2018C9357
:1008B00081E00E94786E0E94E118229681E00E94F9
:1008C000746E80ECD2018C9381E00E94786E0E945D
:1008D000FB18229681E00E94746E8AE3D2018C9309
:1008E00081E00E94786E0E94E118229681E00E94C9
:1008F000746E85E0D2018C9381E00E94786E0E9434
:10090000FB18229681E00E94746E8AE2D2018C93D9
:1009100081E00E94786E0E94E118229681E00E9498
:10092000746E80E0D2018C9381E00E94786E0E9408
:10093000FB18229681E00E94746E80E0D2018C93B5
:1009400081E00E94786E0E94FB18229681E00E944E
:10095000746E80E0D2018C9381E00E94786E0E94D8
:10096000FB18229681E00E94746E8FE7D2018C936F
:1009700081E00E94786E0E94FB18229681E00E941E
:10098000746E8BE2D2018C9381E00E94786E0E949B
:10099000E118229681E00E94746E80E0D2018C936F
:1009A00081E00E94786E0E94FB18229681E00E94EE
:1009B000746E80E0D2018C9381E00E94786E0E9478
:1009C000FB18229681E00E94746E80E0D2018C9325
:1009D00081E00E94786E0E94FB18229681E00E94BE
:1009E000746E8FE9D2018C9381E00E94786E0E9430
:1009F000FB18229681E00E94746E80EED2018C93E7
:100A000081E00E94786E0E94E118229681E00E94A7
:100A1000746E8FE0D2018C9381E00E94786E0E9408
:100A2000FB18229681E00E94746E8AE1D2018C93B9
:100A300081E00E94786E0E94FB18229681E00E945D
:100A4000746E8FE0D2018C9381E00E94786E0E94D8
:100A5000FB18229681E00E94746E88E1D2018C938B
:100A600081E00E94786E0E94FB18229681E00E942D
:100A7000746E8FE2D2018C9381E00E94786E0E94A6
:100A8000FB18229681E00E94746E88E2D2018C935A
:100A900081E00E94786E0E94FB18229681E00E94FD
:100AA000746E80E2D2018C9381E00E94786E0E9485
:100AB000FB18229681E00E94746E82E2D2018C9330
:100AC00081E00E94786E0E94FB18229681E00E94CD
:100AD000746E8FE1D2018C9381E00E94786E0E9447
:100AE000FB18229681E00E94746E8BE1D2018C93F8
:100AF00081E00E94786E0E94FB18229681E00E949D
:100B0000746E83E2D2018C9381E00E94786E0E9421
:100B1000FB18229681E00E94746E87E3D2018C93C9
:100B200081E00E94786E0E94FB18229681E00E946C
:100B3000746E80E0D2018C9381E00E94786E0E94F6
:100B4000FB18229681E00E94746E87E0D2018C939C
:100B500081E00E94786E0E94FB18229681E00E943C
:100B6000746E82E0D2018C9381E00E94786E0E94C4
:100B7000FB18229681E00E94746E80E1D2018C9372
:100B800081E00E94786E0E94FB18229681E00E940C
:100B9000746E81EED2018C9381E00E94786E0E9487
:100BA000E118229681E00E94746E8FE0D2018C934E
:100BB00081E00E94786E0E94FB18229681E00E94DC
:100BC000746E8BE1D2018C9381E00E94786E0E945A
:100BD000FB18229681E00E94746E8FE0D2018C9304
:100BE00081E00E94786E0E94FB18229681E00E94AC
:100BF000746E87E1D2018C9381E00E94786E0E942E
:100C0000FB18229681E00E94746E83E3D2018C93DC
:100C100081E00E94786E0E94FB18229681E00E947B
:100C2000746E8CE2D2018C9381E00E94786E0E94F7
:100C3000FB18229681E00E94746E89E2D2018C93A7
:100C400081E00E94786E0E94FB18229681E00E944B
:100C5000746E8EE2D2018C9381E00E94786E0E94C5
:100C6000FB18229681E00E94746E80E3D2018C937F
:100C700081E00E94786E0E94FB18229681E00E941B
:100C8000746E80E3D2018C9381E00E94786E0E94A2
:100C9000FB18229681E00E94746E89E3D2018C9346
:100CA00081E00E94786E0E94FB18229681E00E94EB
:100CB000746E8FE3D2018C9381E00E94786E0E9463
:100CC000FB18229681E00E94746E80E0D2018C9322
:100CD00081E00E94786E0E94FB18229681E00E94BB
:100CE000746E87E0D2018C9381E00E94786E0E943E
:100CF000FB18229681E00E94746E83E0D2018C93EF
:100D000081E00E94786E0E94FB18229681E00E948A
:100D1000746E80E1D2018C9381E00E94786E0E9413
:100D2000FB18229681E00E94746E89E2D2018C93B6
:100D300081E00E94786E0E94E118229681E00E9474
:100D4000746E84E690E00E94356283E1D2018C9358
:100D500081E00E94786E0E94E118229681E00E9454
:100D6000746E8FEF9FEFD2018D939C9382E00E946F
:100D7000786E0E949717229682E00E94746E0C94FF
:100D80001519020C1802000000000000000000000D
:100D90000000000000000000000000000000000053
:100DA00000007CFFFF7C000000000000000000331A
:100DB0003300000000000000263E1E0000263E1EFC
:100DC0000000000000000000000000000000000023
:100DD0000010F0FE1E10F0FE1E100000021E1F0389
:100DE000021E1F030000000078FCCCFFFFCCCC8863
:100DF00000000000040C0C3F3F0C0F070000000037
:100E0000386C6C3880C0E070381C0000181C0E076D
:100E100003011C36361C000000B8FCC6E23E1C0074
:100E2000000000001F3F3121371E1C362200000049
:100E30000000263E1E000000000000000000000030
:100E4000000000000000000000F0FCFE07010100AF
:100E50000000000000030F1F3820200000000000E9
:100E600000010107FEFCF000000000000020203817
:100E70001F0F0300000000000098B8E0F8F8E0B889
:100E800098000000000C0E030F0F030E0C00000072
:100E900000808080F0F0808080000000000101016F
:100EA0000F0F010101000000000000000000000021
:100EB000000000000000004C7C3C0000000000002E
:100EC000008080808080808080000000000101011F
:100ED000010101010100000000000000000000000D
:100EE000000000000000003838380000000000005A
:100EF00000000080C0E070381C0E00001C0E0703CC
:100F00000100000000000000F8FE0683C363331EEA
:100F1000FEF80000071F1B31303030181F0700009B
:100F2000000C0C0EFFFF000000000000003030300D
:100F30003F3F3030300000001C1E070383C3E377BF
:100F40003E1C0000383C3E3733313030303000003A
:100F50000C0E07C3C3C3C3E77E3C00000C1C383033
:100F6000303030391F0E0000C0E070381C0EFFFF1B
:100F7000000000000707060606063F3F06060000C1
:100F8000787F6763636363E3C38300000C1C3830BE
:100F9000303030381F0F0000C0F0F8DCCEC7C3C3BC
:100FA000800000000F1F3930303030391F0F000033
:100FB0000303030303C3F33F0F0300000000303CAF
:100FC0000F0300000000000000BCFEE7C3C3E7FE03
:100FD000BC0000000F1F3930303030391F0F0000C7
:100FE0003C7EE7C3C3C3C3E7FEFC000000303030E3
:100FF000381C0E0703000000000000707070000035
:10100000000000000000001C1C1C0000000000008C
:101010000000007070700000000000000000004C34
:101020007C7C00000000000000C0E0F0381C0E07CF
:101030000300000000000103070E1C383000000010
:10104000006060606060606060000000000606068E
:1010500006060606060000000003070E1C38F0E036
:10106000C00000000030381C0E0703010000000023
:101070001C1E070383C3E3773E1C00000000000032
:101080003737000000000000FCFE03F31BFBFB07EA
:10109000FEF800000F1F30333637373603010000EB
:1010A0000000E0FC1F1FFCE000000000383F0706C6
:1010B000060606073F380000FFFFC3C3C3C3E7FEB1
:1010C000BC0000003F3F3030303030391F0F00008F
:1010D000F0FC0E07030303070E0C0000030F1C387F
:1010E000303030381C0C0000FFFF03030303070EF1
:1010F000FCF000003F3F30303030381C0F03000060
:10110000FFFFC3C3C3C3C3C3030300003F3F30306B
:101110003030303030300000FFFFC3C3C3C3C3C31F
:10112000030300003F3F000000000000000000003B
:10113000F0FC0E0703C3C3C3C7C60000030F1C386F
:10114000303030303F3F0000FFFFC0C0C0C0C0C0E3
:10115000FFFF00003F3F0000000000003F3F000095
:1011600000000303FFFF0303000000000000303015
:101170003F3F303000000000000000000000000091
:10118000FFFF00000E1E3830303030381F070000DF
:10119000FFFFC0E0F0381C0E070300003F3F0001D6
:1011A00003070E1C38300000FFFF000000000000A5
:1011B000000000003F3F3030303030303030000031
:1011C000FFFF1E78E0E0781EFFFF00003F3F0000B9
:1011D000010100003F3F0000FFFF0E38F0C000009B
:1011E000FFFF00003F3F00000003071C3F3F0000DF
:1011F000F0FC0E070303070EFCF00000030F1C3881
:101200003030381C0F030000FFFF8383838383C7C4
:10121000FE7C00003F3F01010101010100000000D0
:10122000F0FC0E070303070EFCF00000030F1C3850
:1012300030363E1C3F330000FFFF8383838383C728
:10124000FE7C00003F3F010103070F1D3830000006
:101250003C7EE7C3C3C3C3C78E0C00000C1C3830F0
:10126000303030391F0F000003030303FFFF030377
:1012700003030000000000003F3F000000000000EA
:10128000FFFF000000000000FFFF0000071F3830D4
:10129000303030381F070000073FF8C00000C0F8AA
:1012A0003F0700000000010F3E3E0F01000000005C
:1012B000FFFF000080800000FFFF00003F3F1C0692
:1012C0000303061C3F3F0000030F1C30E0E0301C0E
:1012D0000F030000303C0E030101030E3C30000000
:1012E000030F3CF0C0C0F03C0F0300000000000002
:1012F0003F3F00000000000003030303C3E3331F6C
:101300000F030000303C3E333130303030300000CD
:101310000000FFFF030303030000000000003F3F45
:1013200030303030000000001C3870E0C080000019
:1013300000000000000000000103070E1C18000060
:10134000000003030303FFFF000000000000303033
:1013500030303F3F0000000070381C0E070E1C3874
:10136000700000000000000000000000000000000D
:1013700000000000000000000000C0C0C0C0C0C0ED
:10138000C0C0C0C0C0C000000000003E7E460000DB
:10139000000000000000000000000000000000004D
:1013A0000040606060606060E0C000001C3E33335D
:1013B000333333333F3F0000FFFFC060606060E0C5
:1013C000C08000003F3F3030303030381F0F000009
:1013D00080C0E06060606060C08000000F1F383037
:1013E000303030301808000080C0E0606060E0C03D
:1013F000FFFF00000F1F3830303030303F3F00001B
:1014000080C0E06060606060C08000000F1F3B3300
:101410003333333313010000000000F0F81C0C0CD0
:10142000000000000003037F7F03030300000000AF
:10143000C0E0703030303030F0F00000016367669B
:10144000666666733F1F0000FFFFC0606060E0C01B
:10145000800000003F3F00000000003F3F00000010
:1014600000000060ECEC00000000000000003030E4
:101470003F3F303000000000000000000060ECEC56
:10148000000000000000307060607F3F000000003E
:1014900000FFFF0080C0E06000000000003F3F034D
:1014A000070F1C383000000000000003FFFF0000A1
:1014B00000000000000030303F3F303000000000EE
:1014C000E0C0E0E0C0C0E0E0C08000003F3F0000BE
:1014D0003F3F00003F3F000000E0E0C0606060E090
:1014E000C0800000003F3F00000000003F3F0000C0
:1014F00080C0E060606060E0C08000000F1F383096
:10150000303030381F0F0000F0F0303030303070A5
:10151000E0C000007F7F060C0C0C0C0E07030000DF
:10152000C0E0703030303030F0F0000003070E0CB7
:101530000C0C0C067F7F000000E0E0C06060606083
:10154000E0C00000003F3F0000000000000000007D
:1015500000C0E06060606060400000000011333354
:101560003333333F1E000000006060FEFE606060A9
:10157000000000000000001F3F303030300000004D
:10158000E0E0000000000000E0E000000F1F383045
:10159000303030183F3F000060E0800000000080E5
:1015A000E06000000001071E38381E07010000003F
:1015B000E0E00000E0E00000E0E00000071F381C71
:1015C0000F0F1C381F07000060E0C0800080C0E0E3
:1015D0006000000030381D0F070F1D38300000007C
:1015E000000030F0C00000C0F030000000000040FB
:1015F000733F0F03000000004060606060E0E06047
:101600002000000030383C3633313030100000000C
:101610000080C0F87C0E0606060000000000010FE6
:101620001F3830303000000000000000FFFF0000D5
:1016300000000000000000003F3F0000000000002C
:10164000000606060E7CF8C0800000000030303036
:10165000381F0F0100000000406030103060406013
:1016600030100000080C0602060C080C06020000F0
:101670000080C060303060C0800000000F0F0C0C94
:101680000C0C0C0C0F0F02081000000000000000F2
:1016900000000000000000000000001C7E7E1C0016
:1016A00000000000030300000000000E1E00001EEA
:1016B0000E00000000000000000088FEFE88FEFE14
:1016C00088000003030003030000183C2727E4C43C
:1016D000000001010707010000001898C0603018E1
:1016E00000000301000003030000ECFE327EECC0AA
:1016F0006000010302030103020000101E0E00003F
:10170000000000000000000000000070F88C0602DD
:10171000000000000001030200000002068CF870C7
:101720000000000203010000000020A8F87070F81B
:10173000A8200000000000000000002020F8F82091
:101740002000000000000000000000000000000079
:1017500000000004070303000000202020202020B8
:101760002000000000000000000000000000000059
:10177000000000000303030000000080C060301878
:101780000C000301000000000000FCFEC2721AFE03
:10179000FC0001030202020301000808FCFE000035
:1017A000000002020303020200000C8EC2623E1C13
:1017B0000000030302020303000004062222FEDCF1
:1017C000000001030202030100006070584CFEFE9D
:1017D000400000000002030302003E3E2222E2C25B
:1017E00000000103020203010000F8FC2622E2C00F
:1017F000000001030202030100000E0E82C2623EDD
:101800001E000000030300000000DCFE3262FEDC6C
:10181000000001030202030100001C3E22E2FE3C24
:1018200000000002030300000000000098989800E8
:1018300000000000010101000000000098989800DD
:10184000000000000507030000002070D88C06028D
:1018500000000000000103020000005050505050F2
:10186000500000000000000000000002068CD8704C
:1018700020000002030100000000040662721E0C3A
:1018800000000000030300000000FCFE0272727EF4
:101890007C000103020202020000F8FC4646FCF84C
:1018A0000000030300000303000002FEFE2222FEEC
:1018B000DC000203030202030100F8FC0602028EB0
:1018C0008C00000103020203010002FEFE0206FC7E
:1018D000F800020303020301000002FEFE2222724E
:1018E0000600020303020202030002FEFE22227629
:1018F0000E000203030200000000F8FC060242CEC4
:10190000CC000001030202030300FEFE2020FEFEC5
:10191000000003030000030300000002FEFE0200BB
:1019200000000002030302000000C0C00002FEFE2F
:101930000200010302020301000002FEFE20F8DEA5
:101940000600020303000003030002FEFE02008003
:10195000C0000203030202030300FEFE1C381CFE4B
:10196000FE000303000000030300FEFE3870E0FEEB
:10197000FE000303000000030300F8FC060206FC5F
:10198000F800000103020301000002FEFE22223ED5
:101990001C000203030200000000F8FC0682C6FCE3
:1019A000F800000101050707040002FEFE2262FEA6
:1019B0009C0002030300000303009CBE2262CE8C45
:1019C000000001030202030100000602FEFE0206FF
:1019D00000000002030302000000FEFE0000FEFE05
:1019E00000000103020203010000FEFE0000FEFEF3
:1019F000000000010303010000007EFE806080FE05
:101A00007E0000030300030300008EDE7070DE8E94
:101A1000000003030000030300001E3EE0E03E1E42
:101A2000000000020303020000000EC6E23A1E0698
:101A3000860003030202020303000000FEFE02020E
:101A4000000000000303020200000C183060C08098
:101A50000000000000000001030000000202FEFE82
:101A600000000000020203030000080C0603060C3D
:101A7000080000000000000000000000000000005E
:101A80000000040004040404000400000307040030
:101A90000000000000000000000080D05050F0E086
:101AA0000000010302020103020002FEFE1010F01A
:101AB000E0000203010202030100E0F010103020F8
:101AC00000000103020203010000E0F01012FEFE1C
:101AD00000000103020201030200E0F050507060B8
:101AE0000000010302020301000020FCFE22260484
:101AF00000000203030200000000E0F01010E0F01C
:101B00001000040D09090F07000002FEFE2010F06E
:101B1000E0000203030000030300001010F6F600CB
:101B20000000000202030302020000001010F6F69B
:101B30000000060E08080F07000002FEFE40E0B09D
:101B400010000203030000030300000202FEFE0077
:101B500000000002020303020200F0F010F010F097
:101B6000E0000303000100030300F0F01010F0E0B8
:101B700000000303000003030000E0F01010F0E099
:101B80000000010302020301000010F0E01010F059
:101B9000E000080F0F0A02030100E0F01010E0F06F
:101BA00010000103020A0F0F080010F0F04030701F
:101BB0006000020303020000000020705090B0207B
:101BC0000000010302020301000010F8FC101010D5
:101BD00000000001030203010000F0F00000F0F03B
:101BE00000000103020201030200F0F00000F0F027
:101BF00000000001030301000000F0F000C000F04D
:101C0000F00000030300030300001030E0C0E030E8
:101C10001000020301000103020000F0F00000F0D8
:101C2000F0000808090D0703000030909050703054
:101C3000000003030202020300002070DC8E020297
:101C400000000000010302020000000000DEDE00D0
:101C50000000000000030300000002028EDC702080
:101C6000000002020301000000000C0E02060C0836
:101C70000E020000000000000000C0E0301830E05C
:101C8000C000010101010101010081E00E94786EA4
:101C900081E00E94786E81E00E94786E82E00E946E
:101CA000786E81E00E94786E02E0AE85BF854C912F
:101CB000049FAC81BD810C92AE85BF850C91AA8931
:101CC000BB894C91040FAE81BF810C93AE81BF8163
:101CD0000E943661AA89BB898C91D2018C9381E0E4
:101CE0000E94786EAA89BB898C91D2018C9381E085
:101CF0000E94786EAA85BB858C91D2018C9381E07D
:101D00000E94786EAA89BB898C91D2018C9381E064
:101D10000E94786E0E941218289684E00E94746EC9
:101D200070E17093650674E0709365060E940B6A1B
:101D3000A881B9818C93A881B9818C91AA85BB8532
:101D40000E94A56581E0A885B9858C93AC85BD8589
:101D50004C91A885B9850C91041718F011F00C94DA
:101D6000DD0EAC81BD814C915527A881B9818C9144
:101D7000AFE4B5E2E8940E94076670E170936606EE
:101D800070E17093660671E00E94516EAC81BD8176
:101D90003C910E94116FEFE4F5E20E945E6E70E1EB
:101DA0007093650670E170936506A885B9858C917E
:101DB0008F5F8C9310F40C94A60EA881B9818C913E
:101DC0000E94ED6586E0481A80E0580A2A96089538
:101DD00081E00E94786E81E00E94786E82E00E942D
:101DE000786E82E00E94786EAC89BD890C91A889DA
:101DF000B9894C91040FAE81BF810C93AA89BB892C
:101E00000C91AE85BF854C91040FAC81BD810C93C4
:101E1000AC85BD850C91013011F00C947A0FAC8922
:101E2000BD898C91D2018C9381E00E94786EAC893F
:101E3000BD898C91D2018C9381E00E94786EAA8535
:101E4000BB858C91D2018C9381E00E94786EAA852B
:101E5000BB858C91D2018C9381E00E94786E0E94A8
:101E60001218289684E00E94746EA889B9898C9112
:101E70008F5F8C93AE85BF858C918F5F8C93A88983
:101E8000B9890D911127AE85BF854D9155270E94C7
:101E9000886EAA81BB810D931C9381E090E0A8819C
:101EA000B9818D939C93AA81BB814D915C91A8814E
:101EB000B9810D911C910417150718F011F00C94BD
:101EC000780FAA85BB858D919C91D2018D939C93AF
:101ED00082E00E94786E0E949F18229682E00E9403
:101EE000746EA881B9810E94476110F40C94530F5D
:101EF0000C94A311AC85BD850C91023011F00C94AB
:101F0000C410AC89BD898C91D2018C9381E00E9470
:101F1000786EAC89BD898C91D2018C9381E00E944E
:101F2000786EAA85BB858C91D2018C9381E00E944A
:101F3000786EAA85BB858C91D2018C9381E00E943A
:101F4000786E0E941218289684E00E94746EA88908
:101F5000B9898C918F5F8C93AE85BF858C918F5F93
:101F60008C93A889B9890D911127AE85BF854D91B4
:101F700055270E94886EAA81BB810D931C9381E036
:101F800090E0A881B9818D939C93AA81BB814D91EA
:101F90005C91A881B9810D911C910417150718F067
:101FA00011F00C94EA0FAA85BB858D919C91D2010A
:101FB0008D939C9382E00E94786E0E949F182296D7
:101FC00082E00E94746EA881B9810E94476110F47A
:101FD0000C94C50FAC89BD898C91D2018C9381E0A2
:101FE0000E94786EAC89BD898C91D2018C9381E07E
:101FF0000E94786EAA85BB858C91D2018C9381E07A
:102000000E94786EA88DB98D8C91D2018C9381E05D
:102010000E94786E81E0D2018C9381E00E94786EFC
:10202000AA89BB898D919C91D2018D939C9382E06A
:102030000E94786E0E9497122C9687E00E94746E20
:10204000AC89BD898C91D2018C9381E00E94786E1D
:10205000AE81BF818C91D2018C9381E00E94786E19
:10206000AA85BB858C91D2018C9381E00E94786E09
:10207000AA85BB858C91D2018C9381E00E94786EF9
:1020800081E0D2018C9381E00E94786EAA89BB899D
:102090008D919C91D2018D939C9382E00E94786EE9
:1020A0000E9497122C9687E00E94746EAC89BD89BD
:1020B0008C91D2018C9381E00E94786EAC89BD89AD
:1020C0008C91D2018C9381E00E94786EA88DB98D9D
:1020D0008C91D2018C9381E00E94786EAA85BB8599
:1020E0008C91D2018C9381E00E94786E81E0D201C4
:1020F0008C9381E00E94786EAA89BB898D919C9116
:10210000D2018D939C9382E00E94786E0E94971278
:102110002C9687E00E94746EAE81BF818C91D201B3
:102120008C9381E00E94786EAC89BD898C91D2013C
:102130008C9381E00E94786EAA85BB858C91D20138
:102140008C9381E00E94786EAA85BB858C91D20128
:102150008C9381E00E94786E81E0D2018C9381E0C3
:102160000E94786EAA89BB898D919C91D2018D9332
:102170009C9382E00E94786E0E9497122C9687E0D2
:102180000E94746E0C94A311AC85BD850C91033034
:1021900011F00C94A311AC89BD898C91D2018C9360
:1021A00081E00E94786EAC89BD898C91D2018C93BC
:1021B00081E00E94786EAA85BB858C91D2018C93B8
:1021C00081E00E94786EA88DB98D8C91D2018C939C
:1021D00081E00E94786E81E0D2018C9381E00E94C0
:1021E000786EAC89BD898D919C91D2018D939C9321
:1021F00082E00E94786E0E9497122C9687E00E94DF
:10220000746EAC89BD898C91D2018C9381E00E945F
:10221000786EAE81BF818C91D2018C9381E00E9457
:10222000786EAA85BB858C91D2018C9381E00E9447
:10223000786EAA85BB858C91D2018C9381E00E9437
:10224000786E81E0D2018C9381E00E94786EAC8937
:10225000BD898D919C91D2018D939C9382E00E94C7
:10226000786E0E9497122C9687E00E94746EAC895B
:10227000BD898C91D2018C9381E00E94786EAC89EB
:10228000BD898C91D2018C9381E00E94786EA88DDB
:10229000B98D8C91D2018C9381E00E94786EAA85D1
:1022A000BB858C91D2018C9381E00E94786E81E095
:1022B000D2018C9381E00E94786EAC89BD898D91AA
:1022C0009C91D2018D939C9382E00E94786E0E9433
:1022D00097122C9687E00E94746EAE81BF818C911C
:1022E000D2018C9381E00E94786EAC89BD898C917B
:1022F000D2018C9381E00E94786EAA85BB858C9177
:10230000D2018C9381E00E94786EAA85BB858C9166
:10231000D2018C9381E00E94786E81E0D2018C938F
:1023200081E00E94786EAC89BD898D919C91D2012B
:102330008D939C9382E00E94786E0E9497122C9657
:1023400087E00E94746E86E0481A80E0580A28965A
:10235000089582E00E94786E82E00E94786E82E0AA
:102360000E94786E82E00E94786E82E00E94786E11
:1023700082E00E94786E82E00E94786E82E00E9485
:10238000786E81E00E94786E81E00E94786EAE895E
:10239000BF890D911127AE89BF894D9155270E94A4
:1023A000886EAA89BB890D931C93AE89BF890D9154
:1023B00011274FEF5FEF0E94886EAC85BD850D93AE
:1023C0001C93AE89BF890D9111274FEF5FEF0E94DB
:1023D000886EAA85BB850D931C93AC85BD858D91B8
:1023E0009C91A889B9898D939C93AE89BF894D91A1
:1023F0005527A889B9890D911C91041715071CF060
:1024000011F00C949112A889B9890D911C91A88999
:10241000B9894D915C910E94886EA885B9850D930C
:102420001C93AA85BB858D919C91AE85BF858D93AC
:102430009C93AE89BF894D915527AE85BF850D917F
:102440001C91041715071CF011F00C948B12AE852B
:10245000BF850D911C91AE85BF854D915C910E9409
:10246000886EAE81BF810D931C93AE81BF810D91AB
:102470001C91A885B9854D915C91040F151FAC8105
:10248000BD810D931C93AA89BB894D915C91AC8150
:10249000BD810D911C91041715071CF011F00C94CF
:1024A0008512AA8DBB8D0C91AE85BF854C91040F12
:1024B000AA81BB810C93A88DB98D0C91A889B9898B
:1024C0004C91040FA881B9810C93AA81BB818C9196
:1024D000D2018C9381E00E94786EAA81BB818C919D
:1024E000D2018C9381E00E94786EA88DB98D8D9178
:1024F0009C91D2018D939C9382E00E94786E0E9401
:102500004517269684E00E94746EAE85BF850E94B2
:1025100047610C941912A889B9890E9447610C94EB
:10252000F51182E1481A80E0580A6496089582E025
:102530000E94786E82E00E94786E84E00E94786E3D
:1025400084E00E94786E82E00E94786E84E00E94AF
:10255000786E82E00E94786E82E00E94786E82E05F
:102560000E94786E81E00E94786E81E00E94786E11
:1025700081E00E94786EAAA1BBA10C91003818F0EE
:1025800011F00C94C5120C94C91280E8AAA1BBA149
:102590008C93AE8DBF8D0C91003818F011F00C9417
:1025A000D3120C94D71280E8AE8DBF8D8C93A8A166
:1025B000B9A10C91003A18F011F00C94E1120C94AE
:1025C000E51280EAA8A1B9A18C93AC8DBD8D0C91C8
:1025D000003A18F011F00C94EF120C94F31280EA08
:1025E000AC8DBD8D8C930E94116FE8A1F9A1D080B4
:1025F000EE24FF2400270E94C1700E944B702F938D
:102600003F934F935F930E94116FEC8DFD8DD080AF
:10261000EE24FF2400270E94C1705F914F913F91EB
:102620002F910E949171A889B989DD92ED92FD9256
:102630000D930E94116FEAA1FBA1D080EE24FF242C
:1026400000270E94C1700E944B702F933F934F93BD
:102650005F930E94116FEE8DFF8DD080EE24FF24DA
:1026600000270E94C1705F914F913F912F910E946E
:102670009171AA89BB89DD92ED92FD920D9380E064
:1026800090E0AE85BF858D939C930E94116FE88981
:10269000F9890E94FB71AC85BD85DD92ED92FD92BA
:1026A0000D930E94116FEC85FD850E945170AE89DB
:1026B000BF89DD92EC920E94116FEA89FB890E942A
:1026C000FB71AC85BD85DD92ED92FD920D930E946C
:1026D000116FEC85FD850E945170AC89BD89DD923A
:1026E000EC92AC89BD894D915C91AE89BF890D9109
:1026F0001C910417150718F011F00C9481130C9419
:1027000066140E94116FE889F9890E9441700E9445
:10271000116FEA89FB890E943C700E94F970AC85B8
:10272000BD85DD92ED92FD920D93AC8DBD8D4C91EA
:10273000A8A1B9A10C91041718F011F00C94A213E0
:102740000C94B813A8A1B9A10C91AC8DBD8D8C913E
:10275000A8A1B9A18C93AC8DBD8D0C93AE8DBF8D0E
:102760008C91AE81BF818D9388278C930C94C0137C
:10277000AAA1BBA18C91AE81BF818D9388278C9338
:10278000A8A1B9A18C91AE89BF898D9388278C931C
:10279000AC8DBD8D4D915527AE89BF890D911C9192
:1027A0000417150718F011F00C9464140E94116FAF
:1027B000EC85FD850E9441700E94116FEE85FF85BA
:1027C000D190E080FF2400270E94A9700E945271DE
:1027D000AA89BB89DD92ED92FD920D930E94116F43
:1027E000EA89FB890E945170AA85BB85DD92EC9233
:1027F000AA85BB850D911C91AE81BF814D915C91E5
:10280000040F151FAA85BB850D931C93AA85BB8554
:102810008C91AA81BB818C93AE89BF898C91A88150
:10282000B9818C93AA81BB818C91D2018C9381E078
:102830000E94786EAA81BB818C91D2018C9381E039
:102840000E94786EAC8DBD8D8D919C91D2018D933F
:102850009C9382E00E94786E0E944517269684E041
:102860000E94746E82E0AC81BD818C93AA8DBB8D79
:102870004C91AC81BD810C91041718F011F00C94AF
:102880005914A88DB98D8D919C91D2018D939C93F3
:1028900082E00E94786E0E949F18229682E00E9439
:1028A000746EAC81BD818C918F5F8C9310F40C940D
:1028B0003614AE85BF850E944761AE89BF890E94EC
:1028C000476110F40C94C8130C9449150E94116FC1
:1028D000EA89FB890E9441700E94116FE889F98999
:1028E0000E943C700E94F970AC85BD85DD92ED922E
:1028F000FD920D93AE8DBF8D4C91AAA1BBA10C9101
:10290000041718F011F00C9487140C949D14AAA1CC
:10291000BBA10C91AE8DBF8D8C91AAA1BBA18C9354
:10292000AE8DBF8D0C93AC8DBD8D8C91AE81BF8172
:102930008D9388278C930C94A514A8A1B9A18C9190
:10294000AE81BF818D9388278C93AAA1BBA18C9166
:10295000AC89BD898D9388278C93AE8DBF8D4D91A9
:102960005527AC89BD890D911C910417150718F0E6
:1029700011F00C9449150E94116FEC85FD850E94A1
:1029800041700E94116FEE85FF85D190E080FF2499
:1029900000270E94A9700E945271A889B989DD920E
:1029A000ED92FD920D930E94116FE889F9890E94C2
:1029B0005170A885B985DD92EC92A885B9850D91F5
:1029C0001C91AE81BF814D915C91040F151FA885AC
:1029D000B9850D931C93AC89BD898C91AA81BB816B
:1029E0008C93A885B9858C91A881B9818C93AA8193
:1029F000BB818C91D2018C9381E00E94786EAA8178
:102A0000BB818C91D2018C9381E00E94786EAC8D59
:102A1000BD8D8D919C91D2018D939C9382E00E94FB
:102A2000786E0E944517269684E00E94746E82E0BC
:102A3000AC81BD818C93AA8DBB8D4C91AC81BD8145
:102A40000C91041718F011F00C943E15A88DB98D57
:102A50008D919C91D2018D939C9382E00E94786E1F
:102A60000E949F18229682E00E94746EAC81BD8104
:102A70008C918F5F8C9310F40C941B15AE85BF85E1
:102A80000E944761AC89BD890E94476110F40C9493
:102A9000AD148BE1481A80E0580A6896089582E0E8
:102AA0000E94786E82E00E94786E82E00E94786ECA
:102AB00081E00E94786E81E00E94786E81E00E9441
:102AC000786E81E00E94786E81E00E94786E81E0ED
:102AD0000E94786E81E00E94786E81E00E94786E9C
:102AE00081E00E94786E81E00E94786E81E00E9411
:102AF000786E81E00E94786E81E00E94786E81E0BD
:102B00000E94786E82E00E94786E81E00E94786E6A
:102B1000A8A9B9A90E94EB6F082F41E0041BA88562
:102B2000B9850C9380E0AA8DBB8D8C93A885B9855F
:102B30004C91AA8DBB8D0C91041718F011F00C94D8
:102B40003F17AAA5BBA50C91023011F00C94AE154D
:102B5000E2E8FDE00E941C6F0E942961AAA5BBA5C6
:102B60000C91033011F00C94BB15E6E8F6E10E94DD
:102B70001C6F0E942961AA8DBB8D0D9111270F5FDB
:102B80001F4FAAA1BBA10D931C93AAA1BBA18C911D
:102B90000E94116FE8A9F9A901E00A93ADA1BEA1B5
:102BA0000E94CC6F0E942F61AE89BF890E94C36EC4
:102BB0000C920E9429610E942F61AC89BD890E94FC
:102BC000C36E0C920E9429610E942F61AA89BB8961
:102BD0000E94C36E0C920E9429610E942F61A889F5
:102BE000B9890E94C36E0C920E942961ACA1BDA15B
:102BF0008C91082F112700521040AAA1BBA10D9360
:102C00001C9381E0A88DB98D8C93AAA1BBA14D9195
:102C10005C91A88DB98D0D9111270417150718F037
:102C200011F00C943B1681E0AC8DBD8D8C93AA897C
:102C3000BB894C91AC8DBD8D0C91041718F011F02F
:102C40000C9433160E942F61AE8DBF8D0E94C36E0F
:102C50000C920E942961AC8DBD8D8C918F5F8C93FD
:102C600010F40C941716A88DB98D8C918F5F8C93EE
:102C700010F40C940516AA89BB890C91AE89BF8902
:102C80004C910E94DB6FAE85BF850C93AE89BF89E6
:102C90000C9148E0049F0C92AE89BF898C918150C1
:102CA0008C93AE85BF858C9181508C9380E0AA85F2
:102CB000BB858C93AE89BF894C91AA85BB850C914D
:102CC000041718F011F00C943717AA85BB850D91E5
:102CD0001127ACA5BDA54D915527040F151FA8A11F
:102CE000B9A10D931C9380E0AC85BD858C93AE8516
:102CF000BF854C91AC85BD850C91041718F011F07F
:102D00000C942F170E942F61AE8DBF8D0E94C36E51
:102D10000C920E942961AC85BD858C91AE81BF81EA
:102D20008C93AA8DBB8D0D911127AC89BD894D91D6
:102D300055270E94886EAAA1BBA10D931C93AE815A
:102D4000BF810C91AAA1BBA14C91040FAE81BF81A0
:102D50000C93AE81BF810C91AEA5BFA54C91040F21
:102D6000AE81BF810C9380E0A881B9818C93A8814A
:102D7000B9810C91073018F011F00C942717A8A115
:102D8000B9A10C91A881B9814C91040FAC81BD818E
:102D90000C93AE8DBF8D8C9180FBAA81BB8188275F
:102DA00080F98D9388278C93AA81BB810D911C910A
:102DB000013050E0150711F00C94E816A8A5B9A54C
:102DC0008D919C91AA81BB818D939C930C94F0165C
:102DD000AEA1BFA18D919C91AA81BB818D939C9343
:102DE000AA81BB810D911C91003050E1150711F4AF
:102DF0000C941A17AE81BF818C91D2018C9381E023
:102E00000E94786EAE81BF818C91D2018C9381E05B
:102E10000E94786EAE81BF818D919C91D2018D937D
:102E20009C9382E00E94786E0E944517269684E06B
:102E30000E94746E91E0AE8DBF8D0E94BB6EA88122
:102E4000B9818C918F5F8C9310F40C94B716AC857C
:102E5000BD858C918F5F8C9310F40C947716AA85A6
:102E6000BB858C91885F8C9310F40C945A16AA8DB4
:102E7000BB8D8C918F5F8C9310F40C94961587E129
:102E8000481A80E0580AA696089581E00E94786E5C
:102E900081E00E94786EA885B9850C9141E0040F0D
:102EA000AA81BB810C93AE81BF810C9141E0040FDC
:102EB000A881B9810C93A885B9858C91D2018C9396
:102EC00081E00E94786EA885B9858C91D2018C939F
:102ED00081E00E94786EAE81BF818C91D2018C938B
:102EE00081E00E94786EAE81BF818C91D2018C937B
:102EF00081E00E94786E0E941218289684E00E9459
:102F0000746EAC81BD818D919C91D2018D939C9307
:102F100082E00E94786E0E949F18229682E00E94B2
:102F2000746E82E0481A80E0580A2496089582E080
:102F30000E94786E81E00E94786E81E00E94786E37
:102F4000AE81BF8111968C91AA81BB818C93AE8199
:102F5000BF818C91A881B9818C9380E0D2018C9340
:102F600081E00E94786E80E0D2018C9381E00E9423
:102F7000786E8FE7D2018C9381E00E94786E8FE9A2
:102F8000D2018C9381E00E94786E0E9412182896DC
:102F900084E00E94746E70E17093660674E0709332
:102FA000650681E090E0AC81BD818D939C93AC81FE
:102FB000BD810D911C91003050E5150718F011F0FE
:102FC0000C94091870E17093660671E00E94516ECE
:102FD00031E00E94116FEA81FB810E945E6E70E118
:102FE0007093650670E17093660671E00E94516E01
:102FF00031E00E94116FE881F9810E945E6E70E1FC
:1030000070936506AC81BD810E94476110F40C94F9
:10301000D71770E17093650684E0481A80E0580A7B
:10302000269608958AE2D2018C9381E00E94786E00
:103030000E94E118229681E00E94746E80E0D20125
:103040008C9381E00E94786E0E94FB18229681E0AA
:103050000E94746EAE81BF818C91D2018C9381E00D
:103060000E94786E0E94FB18229681E00E94746E86
:1030700080E0D2018C9381E00E94786E0E94FB1860
:10308000229681E00E94746EAA81BB818C91D2014C
:103090008C9381E00E94786E0E94FB18229681E05A
:1030A0000E94746E8BE2D2018C9381E00E94786E54
:1030B0000E94E118229681E00E94746E80E0D201A5
:1030C0008C9381E00E94786E0E94FB18229681E02A
:1030D0000E94746EAC81BD818C91D2018C9381E091
:1030E0000E94786E0E94FB18229681E00E94746E06
:1030F00080E0D2018C9381E00E94786E0E94FB18E0
:10310000229681E00E94746EA881B9818C91D201CF
:103110008C9381E00E94786E0E94FB18229681E0D9
:103120000E94746E8CE2D2018C9381E00E94786ED2
:103130000E94E118229681E00E94746E089581E059
:103140000E94786E81E00E94786EAC81BD818C9186
:10315000AA81BB818C93AC81BD8111968C91A88191
:10316000B9818C9370E17093660674E07093650684
:1031700070E17093660671E00E94516E31E00E942A
:10318000116FE881F9810E945E6E70E170936506AF
:1031900070E17093660671E00E94516E31E00E940A
:1031A000116FEA81FB810E945E6E70E1709365068B
:1031B00070E17093650682E0481A80E0580A249610
:1031C000089570E17093660674E07093660670E18E
:1031D0007093660671E00E94516E31E00E94116F9B
:1031E000E881F9810E945E6E70E17093650670E17E
:1031F00070936506089570E17093660674E07093AD
:10320000650670E17093660671E00E94516E31E0D0
:103210000E94116FE881F9810E945E6E70E17093E7
:10322000650670E170936506089580E090E0D20134
:103230008D939C9382E00E94786E0E94971722964D
:1032400082E00E94746EE1E0F0E00E94A961ACECC3
:10325000B2E2EAE0F4EE0E941C6F0E94B56E84E3D5
:103260000E94786E0E94116FECECF2E2A881B981A5
:103270000E94C06FACECB2E2EEE1F4EE0E941C6F73
:103280000E94B56E0E94116FE881F981ACECB2E248
:103290000E94A2610E94C06F84E3481A80E0580A2D
:1032A00022960E94116FECECF2E2D2010E94C06FF4
:1032B00083E30E94786E81E0D2018C9381E00E94CA
:1032C000786E81E0D2018C9381E00E94786E83E079
:1032D000D2018C9381E00E94786E8FEF9FEFD20134
:1032E0008D939C9382E00E94786E80E090E1D20101
:1032F0008D939C9382E00E94786E0E944F152C96CD
:103300008AE30E94746EE1E0F0E00E94A961ACECF7
:10331000B2E2E6E2F4EE0E941C6F0E94B56EACECE5
:10332000B2E20E94A261E0E3F4EE0E941C6F0E94F0
:10333000B56EACECB2E20E94A261E2E3F4EE0E9450
:103340001C6F0E94B56E0E94116FECECF2E2D2018C
:103350000E94C06F83E30E94786E81E0D2018C935B
:1033600081E00E94786E8CE0D2018C9381E00E9413
:10337000786E83E0D2018C9381E00E94786E8FEFAB
:103380009FEFD2018D939C9382E00E94786E80E043
:1033900090E1D2018D939C9382E00E94786E0E940E
:1033A0004F152C968AE30E94746EE1E0F0E00E94D3
:1033B000A961D201E4E3F4EE0E941C6F0E94B56E95
:1033C0008CE00E94786E81E0D2018C9381E00E94B3
:1033D000786E88E1D2018C9381E00E94786E83E060
:1033E000D2018C9381E00E94786E8FEF9FEFD20123
:1033F0008D939C9382E00E94786E80E090E1D201F0
:103400008D939C9382E00E94786E0E944F152C96BB
:1034100083E10E94746ED201E0E4F4EE0E941C6F1E
:103420000E94B56E83E00E94786E84E6D2018C9390
:1034300081E00E94786E88E1D2018C9381E00E9445
:10344000786E83E0D2018C9381E00E94786E80EEEA
:1034500097E0D2018D939C9382E00E94786E80E089
:1034600090E1D2018D939C9382E00E94786E0E943D
:103470004F152C968AE00E94746E77E07093400896
:1034800082E19AE7809366089093670880914608E6
:103490008C7F81608093460875E07093000880916E
:1034A00006088C7F83608093060875E0709300099E
:1034B00088EB9BE080932609909327098091060969
:1034C0008C7F816080930609E4E4F4EE0E941C6F17
:1034D00084E08A930E94D86D0E94116F84E08A93E1
:1034E0000E94E06DECE4F4EE0E941C6F84E08A938D
:1034F0000E94D86D0E94116F84E08A930E94E06D53
:10350000D201E2E6F4EE0E941C6F0E94B56E89E0E3
:103510000E94786E81E0D2018C9381E00E94786EE7
:1035200084E2D2018C9381E00E94786E83E0D20124
:103530008C9381E00E94786E8FEF9FEFD2018D9384
:103540009C9382E00E94786E80E090E1D2018D939E
:103550009C9382E00E94786E0E944F152C9680E129
:103560000E94746E70916C267F7770936C267091B8
:103570006C267F7B70936C260C94F839ACE6B6E22F
:103580008C9187FB16F40C94CC1B84E090E0AAECA1
:10359000B2E28D939C930E949F3770916C26706865
:1035A00070936C26D201ECE6F4EE0E941C6F0E9430
:1035B000B56E87E00E94786E8FE0D2018C9381E037
:1035C0000E94786E82E3D2018C9381E00E94786E33
:1035D00082E0D2018C9381E00E94786E80E090E0DE
:1035E000D2018D939C9382E00E94786E80E090E1FE
:1035F000D2018D939C9382E00E94786E0E944F15B9
:103600002C968EE00E94746ED201E4E7F4EE0E94E4
:103610001C6F0E94B56E88E00E94786E8FE0D20128
:103620008C9381E00E94786E86E4D2018C9381E0D5
:103630000E94786E82E0D2018C9381E00E94786EC5
:1036400080E090E0D2018D939C9382E00E94786E9E
:1036500080E090E1D2018D939C9382E00E94786E8D
:103660000E944F152C968FE00E94746ED201ECE7F9
:10367000F4EE0E941C6F0E94B56E88E00E94786E86
:103680008FE0D2018C9381E00E94786E8AE5D201AE
:103690008C9381E00E94786E82E0D2018C9381E06D
:1036A0000E94786E80E090E0D2018D939C9382E03E
:1036B0000E94786E80E090E1D2018D939C9382E02D
:1036C0000E94786E0E944F152C968FE00E94746EB7
:1036D000D201E4E8F4EE0E941C6F0E94B56E87E010
:1036E0000E94786E8FE0D2018C9381E00E94786E08
:1036F0008EE6D2018C9381E00E94786E82E0D20146
:103700008C9381E00E94786E80E090E0D2018D93EE
:103710009C9382E00E94786E80E090E1D2018D93CC
:103720009C9382E00E94786E0E944F152C968EE04A
:103730000E94746ED201ECE8F4EE0E941C6F0E94AD
:10374000B56E85E00E94786E8FE0D2018C9381E0A7
:103750000E94786E82E8D2018C9381E00E94786E9C
:1037600082E0D2018C9381E00E94786E80E090E04C
:10377000D2018D939C9382E00E94786E80E090E16C
:10378000D2018D939C9382E00E94786E0E944F1527
:103790002C968CE00E94746EAAECB2E20D911C9102
:1037A000053050E0150718F011F00C94D91B0C945B
:1037B000DF1B85E090E0AAECB2E28D939C93AAEC2B
:1037C000B2E20D911C91043050E0150710F00C94FA
:1037D000EF1B84E090E0AAECB2E28D939C93809181
:1037E000CA2280936F2600916F2644E1049FA0E7D0
:1037F000B6E20C92A0E7B6E28C918D5D8C9340917D
:10380000702600917126041711F40C94281C87E08F
:10381000D2018C9381E00E94786E80917126D20152
:103820008C9381E00E94786E84E0D2018C9381E0D9
:103830000E94786E8FEF9FEFD2018D939C9382E070
:103840000E94786E0E94A911289685E00E94746EED
:10385000AAECB2E20D911C91063050E0150710F071
:103860000C94531C87E0D2018C9381E00E94786E07
:1038700080917026D2018C9381E00E94786E84E062
:10388000D2018C9381E00E94786E80E090E0D201BA
:103890008D939C9382E00E94786E0E94A9112896D5
:1038A00085E00E94746E8091702680937126AAEC48
:1038B000B2E20D911C91053050E0150781E009F04E
:1038C00080E08F93A9ECB2E28C9187FB81E00EF04F
:1038D00080E09F918923882311F40C947C1C81E063
:1038E00080936B267091C9227F777093C922709163
:1038F0006C267F7770936C26AAECB2E20D911C9136
:10390000043050E0150781E009F080E08F93A9ECC6
:10391000B2E28C9187FB81E00EF080E09F918923D9
:10392000882311F40C941E1F8FEF9FEFD2018D930B
:103930009C9382E00E94786E0E949717229682E004
:103940000E94746ED201E2E9F4EE0E941C6F0E94A4
:10395000B56E89E00E94786E8FE0D2018C9381E091
:103960000E94786E82E3D2018C9381E00E94786E8F
:1039700082E0D2018C9381E00E94786E80E090E03A
:10398000D2018D939C9382E00E94786E80E090E15A
:10399000D2018D939C9382E00E94786E0E944F1515
:1039A0002C9680E10E94746E7091C9227F7770938B
:1039B000C92200E010E020E030E0A7E5B2E20D937C
:1039C0001D932D933C9300E010E020E030E0ABE548
:1039D000B2E20D931D932D933C930E947D5AADE767
:1039E000B2E28C9186FB16F40C94F81C0C94FA1C31
:1039F0000C94EF1CE1E0F0E00E94A96100E010E00F
:103A000020E030E0A2E8B2E20D931D932D933C93A9
:103A100000E010E020E030E0A6E8B2E20D931D9354
:103A20002D933C93ADE2B5E28C9187FBA4E8B6E020
:103A30008C9186F98C93A2E8B2E20E943A6170E21E
:103A400070938706AEE2B5E2ED91FC910E940962A7
:103A50000027A8E0B6E08C9184FB00F94427ADE292
:103A6000B5E28C9185FB40F9041711F00C941B1DF5
:103A700088EC90E00E94356270E47093870601E064
:103A800010E020E030E0A5E6B3E20D931D932D9306
:103A90003C93A8E3B5E24D915C9166277727A5E6B4
:103AA000B3E20D911D912D913C910E942C6F1CF061
:103AB00011F00C946A1D70E270938706A2E3B5E2E0
:103AC000ED91FC910E940962A5E6B3E20E943A6181
:103AD0000C94491DA8E3B5E28D919C91A6E8B2E251
:103AE0008D939D9388278D938C93A2E8B2E20D91DC
:103AF0001D912D913C91A6E8B2E24D915D916D91A1
:103B00007C910E94276FA2E8B2E20D931D932D9342
:103B10003D93ACECB2E20E94116FE2E8F2E20E9447
:103B2000426F84E30E94786E0E94116FECECF2E227
:103B3000A881B9810E94C06FACECB2E2ECE9F4EE6E
:103B40000E941C6F0E94B56E0E94116FE881F9817E
:103B5000ACECB2E20E94A2610E94C06F84E3481AFA
:103B600080E0580A22960E94116FECECF2E2D2013A
:103B70000E94C06F83E30E94786E81E0D2018C9333
:103B800081E00E94786E86E4D2018C9381E00E94ED
:103B9000786E83E0D2018C9381E00E94786E80E0A1
:103BA00090E0D2018D939C9382E00E94786E8FEF1B
:103BB0009FEFD2018D939C9382E00E94786E0E94C9
:103BC0004F152C968AE30E94746E00E010E020E00E
:103BD00030E0A6E8B2E20D931D932D933C93ADE245
:103BE000B5E28C9186FBA4E8B6E08C9181F98C93C8
:103BF00071E070938706A6E8B2E20E943A61A0E302
:103C0000B5E2ED91FC910E9409620027A8E0B6E0C0
:103C10008C9183FB00F94427ADE2B5E28C9184FBE3
:103C200040F9041711F00C94F81D88EC90E00E9404
:103C3000356272E07093870601E010E020E030E02A
:103C4000A5E6B3E20D931D932D933C93A6E3B5E255
:103C50004D915C9166277727A5E6B3E20D911D9102
:103C60002D913C910E942C6F1CF011F00C94471E7A
:103C700071E070938706A4E3B5E2ED91FC910E9498
:103C80000962A5E6B3E20E943A610C94261EA6E3FF
:103C9000B5E28D919C91A2E8B2E28D939D93882725
:103CA0008D938C93A6E8B2E20D911D912D913C91DC
:103CB000A2E8B2E24D915D916D917C910E94276FD7
:103CC000A6E8B2E20D931D932D933D93ACECB2E2C6
:103CD0000E94116FE6E8F2E20E94426F84E30E94C4
:103CE000786E0E94116FECECF2E2A881B9810E941B
:103CF000C06FACECB2E2E8EAF4EE0E941C6F0E94E6
:103D0000B56E0E94116FE881F981ACECB2E20E94BD
:103D1000A2610E94C06F84E3481A80E0580A22968C
:103D20000E94116FECECF2E2D2010E94C06F83E3BB
:103D30000E94786E81E0D2018C9381E00E94786EBF
:103D40008AE5D2018C9381E00E94786E83E0D201F3
:103D50008C9381E00E94786E80E090E0D2018D9398
:103D60009C9382E00E94786E8FEF9FEFD2018D933B
:103D70009C9382E00E94786E0E944F152C968AE3F5
:103D80000E94746E7091C9227F777093C922A8E057
:103D9000B6E00C9105FB16F40C94061F8EE190E042
:103DA0000E9435627091C9227F7D7093C922A8E07C
:103DB000B6E00C9105FB16F40C94E31E7091C92239
:103DC00070627093C922A9ECB2E28C9185FB81E00C
:103DD0000EF080E08F93A9ECB2E28C9184FB81E03D
:103DE0000EF480E09F918923882311F40C94FD1E2A
:103DF0007091C92270687093C922A9ECB2E28C91CB
:103E000085FBA8E0B6E08C9185F98C93A9ECB2E231
:103E10008C9187FB16F00C941C1F81E080936B261D
:103E20007091C9227F777093C92270916C267F7739
:103E300070936C260C941E1F0C94C71E0895ACE65C
:103E4000B6E28C9187FB16F40C94A91F81E090E0F8
:103E5000AAECB2E28D939C930E949F3770916C26DE
:103E6000706870936C26D201E4EBF4EE0E941C6F34
:103E70000E94B56E80E10E94786E83E0D2018C933F
:103E800081E00E94786E82E3D2018C9381E00E94EF
:103E9000786E83E0D2018C9381E00E94786E80E09E
:103EA00090E0D2018D939C9382E00E94786E80E036
:103EB00090E1D2018D939C9382E00E94786E0E94E3
:103EC0004F152C9687E10E94746EACECB2E20E9412
:103ED000116FE5E2F2E20E944C6FACECB2E20E949C
:103EE000A261E4ECF4EE0E941C6F0E94B56E0E9489
:103EF000116FECECF2E2D2010E94C06F83E30E94EA
:103F0000786E83E0D2018C9381E00E94786E86E423
:103F1000D2018C9381E00E94786E83E0D2018C9371
:103F200081E00E94786E80E090E0D2018D939C93B6
:103F300082E00E94786E80E090E1D2018D939C93A4
:103F400082E00E94786E0E944F152C968AE30E94B0
:103F5000746EA5E2B2E24D915527AAECB2E20D9142
:103F60001C910417150718F011F00C94B91F0C944C
:103F7000C11FA5E2B2E28C91AAECB2E28D93882730
:103F80008C93AAECB2E20D911C91013050E0150720
:103F900010F00C94D11F81E090E0AAECB2E28D9376
:103FA0009C930E94116F0E94116FEAECF2E2019162
:103FB000108140E150E00E94886EE5E3F0E2E00FFE
:103FC000F11FACECB2E20E94C06F0E94116F0E9420
:103FD000116FEAECF2E20191108140E150E00E94A1
:103FE000886EE5E3F0E2E00FF11FA6E2B2E20E9484
:103FF000C06FACECB2E20E94EB6FA9E6B3E28C9327
:10400000009169230B3010F00C943020A9E6B3E244
:104010008C91A2E8B2E28D9388278D938D938C9337
:104020004BE050E060E070E0A2E8B2E20D911D913B
:104030002D913C910E942C6F1CF011F00C943020BB
:10404000ACECB2E20E94A261E0EDF4EE0E941C6FC3
:104050000E94B56EA2E8B2E20E943A610C94102070
:104060000E94116FECECF2E2D2010E94C06F83E378
:104070000E94786E83E0D2018C9381E00E94786E7A
:104080008AE5D2018C9381E00E94786E83E0D201B0
:104090008C9381E00E94786E80E090E0D2018D9355
:1040A0009C9382E00E94786E8FEF9FEFD2018D93F8
:1040B0009C9382E00E94786E0E944F152C968AE3B2
:1040C0000E94746EA9ECB2E28C9187FB16F00C94FE
:1040D000762081E080936B2670916C267F777093B9
:1040E0006C267091C9227F777093C9220895ACE63F
:1040F000B6E28C9187FB16F40C94C12180E090E02D
:10410000AAECB2E28D939C930E949F3770916C262B
:10411000706870936C26D201E2EDF4EE0E941C6F81
:104120000E94B56E8AE00E94786E8FE0D2018C9377
:1041300081E00E94786E82E3D2018C9381E00E943C
:10414000786E82E0D2018C9381E00E94786E80E0EC
:1041500090E0D2018D939C9382E00E94786E80E083
:1041600090E1D2018D939C9382E00E94786E0E9430
:104170004F152C9681E10E94746ED201ECEDF4EEA5
:104180000E941C6F0E94B56E8AE00E94786E8FE0DC
:10419000D2018C9381E00E94786E86E4D2018C93E8
:1041A00081E00E94786E82E0D2018C9381E00E94CF
:1041B000786E80E090E0D2018D939C9382E00E9423
:1041C000786E80E090E1D2018D939C9382E00E9412
:1041D000786E0E944F152C9681E10E94746ED20178
:1041E000E6EEF4EE0E941C6F0E94B56E87E00E941E
:1041F000786E8FE0D2018C9381E00E94786E8AE520
:10420000D2018C9381E00E94786E82E0D2018C937F
:1042100081E00E94786E80E090E0D2018D939C93C3
:1042200082E00E94786E80E090E1D2018D939C93B1
:1042300082E00E94786E0E944F152C968EE00E94BC
:10424000746ED201EEEEF4EE0E941C6F0E94B56E09
:104250008AE00E94786E8FE0D2018C9381E00E9408
:10426000786E8EE6D2018C9381E00E94786E82E0B7
:10427000D2018C9381E00E94786E80E090E0D201C0
:104280008D939C9382E00E94786E80E090E1D20151
:104290008D939C9382E00E94786E0E944F152C961D
:1042A00081E10E94746ED201ECE8F4EE0E941C6F72
:1042B0000E94B56E85E00E94786E8FE0D2018C93EB
:1042C00081E00E94786E82E8D2018C9381E00E94A6
:1042D000786E82E0D2018C9381E00E94786E80E05B
:1042E00090E0D2018D939C9382E00E94786E80E0F2
:1042F00090E1D2018D939C9382E00E94786E0E949F
:104300004F152C968CE00E94746EADE2B5E28C9154
:1043100083FB16F00C94BE21D201E8EFF4EE0E946C
:104320001C6F0E94B56E81E10E94786E81E0D2011F
:104330008C9381E00E94786E84E9D2018C9381E0B5
:104340000E94786E83E0D2018C9381E00E94786EA7
:1043500080EE9FEFD2018D939C9382E00E94786E55
:1043600080E098EFD2018D939C9382E00E94786E5A
:104370000E944F152C9688E10E94746E78E6709327
:10438000A008AAECB2E20D911C91053050E015078F
:1043900018F011F00C94CE210C94D42185E090E01B
:1043A000AAECB2E28D939C93AAECB2E20D911C911F
:1043B000003050E0150711F00C94E42181E090E00A
:1043C000AAECB2E28D939C938091CA2280936F26CF
:1043D00000916F2644E1049FA0E7B6E20C92A0E7AB
:1043E000B6E28C918D5D8C93409170260091712680
:1043F000041711F40C941D2287E0D2018C9381E004
:104400000E94786E80917126D2018C9381E00E9487
:10441000786E84E0D2018C9381E00E94786E8FEFF9
:104420009FEFD2018D939C9382E00E94786E0E9450
:10443000A911289685E00E94746EAAECB2E20D9153
:104440001C91063050E0150710F00C94482287E0CC
:10445000D2018C9381E00E94786E80917026D20107
:104460008C9381E00E94786E84E0D2018C9381E08D
:104470000E94786E80E090E0D2018D939C9382E060
:104480000E94786E0E94A911289685E00E94746EA1
:104490008091702680937126AAECB2E20D911C9156
:1044A000033050E0150781E009F080E08F93A9EC1C
:1044B000B2E28C9187FB81E00EF080E09F9189232E
:1044C000882311F40C94C2258FEF9FEFD2018D93B6
:1044D0009C9382E00E94786E0E949717229682E059
:1044E0000E94746ED201EAE0F5EE0E941C6F0E94F9
:1044F000B56E89E00E94786E8FE0D2018C9381E0E6
:104500000E94786E82E3D2018C9381E00E94786EE3
:1045100082E0D2018C9381E00E94786E80E098EF77
:10452000D2018D939C9382E00E94786E80E090E1AE
:10453000D2018D939C9382E00E94786E0E944F1569
:104540002C9680E10E94746ED201E4E1F5EE0E94A7
:104550001C6F0E94B56E89E00E94786E8FE0D201D8
:104560008C9381E00E94786E86E4D2018C9381E086
:104570000E94786E82E0D2018C9381E00E94786E76
:1045800080E090E0D2018D939C9382E00E94786E4F
:1045900080E090E1D2018D939C9382E00E94786E3E
:1045A0000E944F152C9680E10E94746ED201EEE1BC
:1045B000F5EE0E941C6F0E94B56E87E00E94786E37
:1045C0008FE0D2018C9381E00E94786E8AE5D2015F
:1045D0008C9381E00E94786E82E0D2018C9381E01E
:1045E0000E94786E80E090E0D2018D939C9382E0EF
:1045F0000E94786E80E090E1D2018D939C9382E0DE
:104600000E94786E0E944F152C968EE00E94746E68
:10461000D201E6E2F5EE0E941C6F0E94B56E89E0C1
:104620000E94786E8FE0D2018C9381E00E94786EB8
:104630008EE6D2018C9381E00E94786E82E0D201F6
:104640008C9381E00E94786E80E090E0D2018D939F
:104650009C9382E00E94786E80E090E1D2018D937D
:104660009C9382E00E94786E0E944F152C9680E108
:104670000E94746ED201E0E3F5EE0E941C6F0E946E
:10468000B56E84E00E94786E8FE0D2018C9381E059
:104690000E94786E82E8D2018C9381E00E94786E4D
:1046A00082E0D2018C9381E00E94786E80E090E0FD
:1046B000D2018D939C9382E00E94786E80E090E11D
:1046C000D2018D939C9382E00E94786E0E944F15D8
:1046D0002C968BE00E94746EACE9B2E20D911D91B4
:1046E0002D913C91AFE5B2E20D931D932D933C9338
:1046F000A4EAB2E20D911D912D913C91A3E6B2E2A4
:104700000D931D932D933C93ADE2B5E28C9183FB09
:1047100016F00C94BD23AFE5B2E20D911D912D91E1
:104720003C91A0E4B5E24D915D9157FB1EF46FEF13
:104730007FEF02C0662777270E94226FAFE5B2E2C3
:104740000D931D932D933D93A3E6B2E20D911D9120
:104750002D913C91A2E4B5E24D915D9157FB1EF481
:104760006FEF7FEF02C0662777270E94226FA3E6D4
:10477000B2E20D931D932D933D93ADE2B5E28C9182
:1047800081FB16F00C94EC23AFE5B2E20D911D9184
:104790002D913C91ACE9B2E24D915D916D917C918E
:1047A0000E94276FAFE5B2E20D931D932D933D93C9
:1047B000A3E6B2E20D911D912D913C91A4EAB2E2E3
:1047C0004D915D916D917C910E94276FA3E6B2E2BD
:1047D0000D931D932D933D930E94076085E5A6E9F7
:1047E000B2E28C930E947D5AADE7B2E28C9186FBD7
:1047F00016F40C94FD230C94FF230C94F423A0EAEC
:10480000B2E20D911D912D913C91AFE5B2E20D9375
:104810001D932D933C93A4EAB2E20D911D912D912D
:104820003C91A3E6B2E20D931D932D933C93ADE230
:10483000B5E28C9181FB16F00C944624AFE5B2E210
:104840000D911D912D913C91ACE9B2E24D915D919C
:104850006D917C910E94276FAFE5B2E20D931D939D
:104860002D933D93A3E6B2E20D911D912D913C91C4
:10487000A4EAB2E24D915D916D917C910E94276F07
:10488000A3E6B2E20D931D932D933D93ADE2B5E205
:104890008C9183FB16F00C947F24AFE5B2E20D916E
:1048A0001D912D913C91A0E4B5E24D915D9157FB96
:1048B0001EF46FEF7FEF02C0662777270E94226FFA
:1048C000AFE5B2E20D931D932D933D93A3E6B2E2C3
:1048D0000D911D912D913C91A2E4B5E24D915D9118
:1048E00057FB1EF46FEF7FEF02C0662777270E9409
:1048F000226FA3E6B2E20D931D932D933D930E9488
:10490000076085E5A6E9B2E28C930E947D5AADE787
:10491000B2E28C9186FB16F40C9490240C949224B1
:104920000C948724A0EAB2E20D911D912D913C9147
:10493000AFE5B2E20D931D932D933C93A8EAB2E24A
:104940000D911D912D913C91A3E6B2E20D931D9323
:104950002D933C93ADE2B5E28C9181FB16F00C9463
:10496000D924AFE5B2E20D911D912D913C91ACE9B6
:10497000B2E24D915D916D917C910E94276FAFE500
:10498000B2E20D931D932D933D93A3E6B2E20D91F8
:104990001D912D913C91A4EAB2E24D915D916D91F2
:1049A0007C910E94276FA3E6B2E20D931D932D9395
:1049B0003D93ADE2B5E28C9183FB16F00C94122589
:1049C000AFE5B2E20D911D912D913C91A0E4B5E2CD
:1049D0004D915D9157FB1EF46FEF7FEF02C066278C
:1049E00077270E94226FAFE5B2E20D931D932D93BE
:1049F0003D93A3E6B2E20D911D912D913C91A2E46D
:104A0000B5E24D915D9157FB1EF46FEF7FEF02C051
:104A1000662777270E94226FA3E6B2E20D931D93CB
:104A20002D933D930E94076085E5A6E9B2E28C9341
:104A30000E947D5AADE7B2E28C9186FB16F40C948D
:104A400023250C9425250C941A25ACE9B2E20D918E
:104A50001D912D913C91AFE5B2E20D931D932D93E5
:104A60003C93A8EAB2E20D911D912D913C91A3E6F1
:104A7000B2E20D931D932D933C93ADE2B5E28C9180
:104A800081FB16F00C946C25AFE5B2E20D911D91FF
:104A90002D913C91ACE9B2E24D915D916D917C918B
:104AA0000E94276FAFE5B2E20D931D932D933D93C6
:104AB000A3E6B2E20D911D912D913C91A4EAB2E2E0
:104AC0004D915D916D917C910E94276FA3E6B2E2BA
:104AD0000D931D932D933D93ADE2B5E28C9183FB35
:104AE00016F00C94A525AFE5B2E20D911D912D9124
:104AF0003C91A0E4B5E24D915D9157FB1EF46FEF40
:104B00007FEF02C0662777270E94226FAFE5B2E2EF
:104B10000D931D932D933D93A3E6B2E20D911D914C
:104B20002D913C91A2E4B5E24D915D9157FB1EF4AD
:104B30006FEF7FEF02C0662777270E94226FA3E600
:104B4000B2E20D931D932D933D930E94076085E57E
:104B5000A6E9B2E28C930E947D5AADE7B2E28C9155
:104B600086FB16F40C94B6250C94B8250C94AD2550
:104B700070916C267F7770936C267091C9227F7735
:104B80007093C922AAECB2E20D911C91053050E05D
:104B9000150781E009F080E08F93A9ECB2E28C91D7
:104BA00087FB81E00EF080E09F918923882311F438
:104BB0000C94EA2581E080936B267091C9227F775F
:104BC0007093C92270916C267F7770936C2679E67A
:104BD0007093A008AAECB2E20D911C91013050E054
:104BE000150781E009F080E08F93A9ECB2E28C9187
:104BF00087FB81E00EF080E09F918923882311F4E8
:104C00000C94A7278FEF9FEFD2018D939C9382E0A6
:104C10000E94786E0E949717229682E00E94746E1E
:104C2000D201EAE0F5EE0E941C6F0E94B56E89E0A9
:104C30000E94786E8FE0D2018C9381E00E94786EA2
:104C400082E3D2018C9381E00E94786E82E0D201EF
:104C50008C9381E00E94786E80E098EFD2018D9372
:104C60009C9382E00E94786E80E090E1D2018D9367
:104C70009C9382E00E94786E0E944F152C9680E1F2
:104C80000E94746ED201E2EDF4EE0E941C6F0E944D
:104C9000B56E8AE00E94786E8FE0D2018C9381E03D
:104CA0000E94786E86E4D2018C9381E00E94786E37
:104CB00082E0D2018C9381E00E94786E80E090E0E7
:104CC000D2018D939C9382E00E94786E80E090E107
:104CD000D2018D939C9382E00E94786E0E944F15C2
:104CE0002C9681E10E94746ED201EEE1F5EE0E94F5
:104CF0001C6F0E94B56E87E00E94786E8FE0D20133
:104D00008C9381E00E94786E8AE5D2018C9381E0D9
:104D10000E94786E82E0D2018C9381E00E94786ECE
:104D200080E090E0D2018D939C9382E00E94786EA7
:104D300080E090E1D2018D939C9382E00E94786E96
:104D40000E944F152C968EE00E94746ED201E6E20E
:104D5000F5EE0E941C6F0E94B56E89E00E94786E8D
:104D60008FE0D2018C9381E00E94786E8EE6D201B2
:104D70008C9381E00E94786E82E0D2018C9381E076
:104D80000E94786E80E090E0D2018D939C9382E047
:104D90000E94786E80E090E1D2018D939C9382E036
:104DA0000E94786E0E944F152C9680E10E94746ECE
:104DB000D201E0E3F5EE0E941C6F0E94B56E84E024
:104DC0000E94786E8FE0D2018C9381E00E94786E11
:104DD00082E8D2018C9381E00E94786E82E0D20159
:104DE0008C9381E00E94786E80E090E0D2018D93F8
:104DF0009C9382E00E94786E80E090E1D2018D93D6
:104E00009C9382E00E94786E0E944F152C968BE056
:104E10000E94746EACE9B2E20D911D912D913C910E
:104E2000AFE5B2E20D931D932D933C93A4EAB2E259
:104E30000D911D912D913C91A3E6B2E20D931D932E
:104E40002D933C93ADE2B5E28C9183FB16F00C946C
:104E50005B27AFE5B2E20D911D912D913C91A0E44D
:104E6000B5E24D915D9157FB1EF46FEF7FEF02C0ED
:104E7000662777270E94226FAFE5B2E20D931D935C
:104E80002D933D93A3E6B2E20D911D912D913C919E
:104E9000A2E4B5E24D915D9157FB1EF46FEF7FEFF9
:104EA00002C0662777270E94226FA3E6B2E20D9325
:104EB0001D932D933D93ADE2B5E28C9181FB16F0ED
:104EC0000C948A27AFE5B2E20D911D912D913C9192
:104ED000ACE9B2E24D915D916D917C910E94276F9A
:104EE000AFE5B2E20D931D932D933D93A3E6B2E29D
:104EF0000D911D912D913C91A4EAB2E24D915D91ED
:104F00006D917C910E94276FA3E6B2E20D931D93F1
:104F10002D933D930E94076085E5A6E9B2E28C934C
:104F20000E947D5AADE7B2E28C9186FB16F40C9498
:104F30009B270C949D270C94922770916C267F7769
:104F400070936C267091C9227F777093C922AAEC66
:104F5000B2E20D911C91023050E0150781E009F09A
:104F600080E08F93A9ECB2E28C9187FB81E00EF098
:104F700080E09F918923882311F40C9464298FEF9A
:104F80009FEFD2018D939C9382E00E94786E0E94E5
:104F90009717229682E00E94746ED201EAE0F5EE45
:104FA0000E941C6F0E94B56E89E00E94786E8FE0AF
:104FB000D2018C9381E00E94786E82E3D2018C93BF
:104FC00081E00E94786E82E0D2018C9381E00E94A1
:104FD000786E80E098EFD2018D939C9382E00E94DE
:104FE000786E80E090E1D2018D939C9382E00E94E4
:104FF000786E0E944F152C9680E10E94746ED2014B
:10500000ECEDF4EE0E941C6F0E94B56E8AE00E94E7
:10501000786E8FE0D2018C9381E00E94786E86E4F6
:10502000D2018C9381E00E94786E82E0D2018C9351
:1050300081E00E94786E80E090E0D2018D939C9395
:1050400082E00E94786E80E090E1D2018D939C9383
:1050500082E00E94786E0E944F152C9681E10E949A
:10506000746ED201EEE1F5EE0E941C6F0E94B56EE7
:1050700087E00E94786E8FE0D2018C9381E00E94DD
:10508000786E8AE5D2018C9381E00E94786E82E08E
:10509000D2018C9381E00E94786E80E090E0D20192
:1050A0008D939C9382E00E94786E80E090E1D20123
:1050B0008D939C9382E00E94786E0E944F152C96EF
:1050C0008EE00E94746ED201E6E2F5EE0E941C6F43
:1050D0000E94B56E89E00E94786E8FE0D2018C93B9
:1050E00081E00E94786E8EE6D2018C9381E00E946E
:1050F000786E82E0D2018C9381E00E94786E80E02D
:1051000090E0D2018D939C9382E00E94786E80E0C3
:1051100090E1D2018D939C9382E00E94786E0E9470
:105120004F152C9680E10E94746ED201E0E3F5EEFB
:105130000E941C6F0E94B56E84E00E94786E8FE022
:10514000D2018C9381E00E94786E82E8D2018C9328
:1051500081E00E94786E82E0D2018C9381E00E940F
:10516000786E80E090E0D2018D939C9382E00E9463
:10517000786E80E090E1D2018D939C9382E00E9452
:10518000786E0E944F152C968BE00E94746EA0EAF8
:10519000B2E20D911D912D913C91AFE5B2E20D93DC
:1051A0001D932D933C93A8EAB2E20D911D912D9190
:1051B0003C91A3E6B2E20D931D932D933C93ADE297
:1051C000B5E28C9183FB16F00C941829AFE5B2E29E
:1051D0000D911D912D913C91A0E4B5E24D915D9111
:1051E00057FB1EF46FEF7FEF02C0662777270E9400
:1051F000226FAFE5B2E20D931D932D933D93A3E68D
:10520000B2E20D911D912D913C91A2E4B5E24D9138
:105210005D9157FB1EF46FEF7FEF02C06627772783
:105220000E94226FA3E6B2E20D931D932D933D934E
:10523000ADE2B5E28C9181FB16F00C944729AFE505
:10524000B2E20D911D912D913C91ACE9B2E24D91EC
:105250005D916D917C910E94276FAFE5B2E20D9355
:105260001D932D933D93A3E6B2E20D911D912D91D7
:105270003C91A4EAB2E24D915D916D917C910E94C6
:10528000276FA3E6B2E20D931D932D933D930E94E9
:10529000076085E5A6E9B2E28C930E947D5AADE7EE
:1052A000B2E28C9186FB16F40C9458290C945A297E
:1052B0000C944F2970916C267F7770936C267091B7
:1052C000C9227F777093C922AAECB2E20D911C919A
:1052D000043050E0150781E009F080E08F93A9ECDD
:1052E000B2E28C9187FB81E00EF080E09F918923F0
:1052F000882311F40C94892988E080936B2670919F
:10530000C9227F777093C92270916C267F77709342
:105310006C260895A9ECB2E28C9180FB81E00EF03E
:1053200080E08F93A9ECB2E28C9183FB81E00EF4D4
:1053300080E09F918923882311F40C94A22970E1C5
:1053400070938506ACE6B6E28C9187FB16F40C945C
:10535000962B80E090E0AAECB2E28D939C930E94A1
:105360009F3770916C26706870936C26D201E4E3CD
:10537000F5EE0E941C6F0E94B56E8AE00E94786E66
:105380008FE0D2018C9381E00E94786E82E3D2019B
:105390008C9381E00E94786E82E0D2018C9381E050
:1053A0000E94786E80E090E0D2018D939C9382E021
:1053B0000E94786E80E090E1D2018D939C9382E010
:1053C0000E94786E0E944F152C9681E10E94746EA7
:1053D000A9ECB2E28C9183FB16F00C94232AD20143
:1053E000EEE3F5EE0E941C6F0E94B56E88E00E940D
:1053F000786E8FE0D2018C9381E00E94786E86E413
:10540000D2018C9381E00E94786E82E0D2018C936D
:1054100081E00E94786E80E090E0D2018D939C93B1
:1054200082E00E94786E80E090E1D2018D939C939F
:1054300082E00E94786E0E944F152C968FE00E94A9
:10544000746E0C94552AD201E6E4F5EE0E941C6FAE
:105450000E94B56E87E00E94786E8FE0D2018C9337
:1054600081E00E94786E86E4D2018C9381E00E94F4
:10547000786E82E0D2018C9381E00E94786E80E0A9
:1054800090E0D2018D939C9382E00E94786E80E040
:1054900090E1D2018D939C9382E00E94786E0E94ED
:1054A0004F152C968EE00E94746ED201EEE4F5EE5C
:1054B0000E941C6F0E94B56E89E00E94786E8FE09A
:1054C000D2018C9381E00E94786E8AE5D2018C93A0
:1054D00081E00E94786E82E0D2018C9381E00E948C
:1054E000786E80E090E0D2018D939C9382E00E94E0
:1054F000786E80E090E1D2018D939C9382E00E94CF
:10550000786E0E944F152C9680E10E94746E0E9466
:105510005460ACECB2E20E94116FE3E1F5E20E944C
:105520004C6FACECB2E20E94A261E8E5F5EE0E949D
:105530001C6F0E94B56EACECB2E20E94A2610E94A8
:10554000116FE2E1F5E20E944C6FACECB2E20E9416
:10555000A261E8E5F5EE0E941C6F0E94B56EACEC0E
:10556000B2E20E94A2610E94116FE4E1F5E20E94A2
:105570004C6FA9ECB2E28C9183FB16F00C94D22A0A
:105580008EE10E94F76908F40BC0FA93EA93EAE50A
:10559000F5EE0E941C6F0E94C36C0E94BD6C2296A7
:1055A0000C94E22A8EE10E94F76908F40BC0FA938A
:1055B000EA93ECE6F5EE0E941C6F0E94C36C0E9419
:1055C000BD6C22968EE10E94F76908F409C0FA9337
:1055D000EA93E6E8F5EE0E941C6F0E94C36C2296E7
:1055E0008EE1ACECB2E20E94C165ADE4B5E20E948E
:1055F00047610E94116FE0E0F0E0ADE4B5E20E9487
:10560000256E8EE10E94F76908F409C0FA93EA93C7
:10561000E0E9F5EE0E941C6F0E94C36C2296ACEC90
:10562000B2E20E94116FEDE4F5E20E943F6F8EE15D
:10563000ACECB2E20E94C1650E94B7600E94546067
:105640008EE10E94F76908F40BC0FA93EA93EEEA40
:10565000F5EE0E941C6F0E94C36C0E94BD6C2296E6
:105660000E94B7600E94116FECECF2E2D2010E943E
:10567000C06F83E30E94786E8FE0D2018C9381E04B
:105680000E94786E8EE6D2018C9381E00E94786E43
:1056900082E0D2018C9381E00E94786E80E090E0FD
:1056A000D2018D939C9382E00E94786E80E090E11D
:1056B000D2018D939C9382E00E94786E0E944F15D8
:1056C0002C968AE30E94746ED201ECE8F4EE0E94FC
:1056D0001C6F0E94B56E85E00E94786E8FE0D2014B
:1056E0008C9381E00E94786E82E8D2018C9381E0F5
:1056F0000E94786E82E0D2018C9381E00E94786EE5
:1057000080E090E0D2018D939C9382E00E94786EBD
:1057100080E090E1D2018D939C9382E00E94786EAC
:105720000E944F152C968CE00E94746EA9ECB2E298
:105730008C9187FB16F00C94AA2B70916C267F77C6
:1057400070936C2681E080936B267091C9227F77DD
:105750007093C9220895ACE6B6E28C9187FB16F4EB
:105760000C94B92C80E090E0AAECB2E28D939C936B
:105770000E949F3770916C26706870936C26D201DE
:10578000E0EBF5EE0E941C6F0E94B56E8AE00E946D
:10579000786E8FE0D2018C9381E00E94786E82E374
:1057A000D2018C9381E00E94786E82E0D2018C93CA
:1057B00081E00E94786E80E090E0D2018D939C930E
:1057C00082E00E94786E80E090E1D2018D939C93FC
:1057D00082E00E94786E0E944F152C9681E10E9413
:1057E000746ED201EAEBF5EE0E941C6F0E94B56E5A
:1057F0008AE00E94786E8FE0D2018C9381E00E9453
:10580000786E86E4D2018C9381E00E94786E82E00B
:10581000D2018C9381E00E94786E80E090E0D2010A
:105820008D939C9382E00E94786E80E090E1D2019B
:105830008D939C9382E00E94786E0E944F152C9667
:1058400081E10E94746ED201E4ECF5EE0E941C6FBF
:105850000E94B56E87E00E94786E8FE0D2018C9333
:1058600081E00E94786E8AE5D2018C9381E00E94EB
:10587000786E82E0D2018C9381E00E94786E80E0A5
:1058800090E0D2018D939C9382E00E94786E80E03C
:1058900090E1D2018D939C9382E00E94786E0E94E9
:1058A0004F152C968EE00E94746ED201ECECF5EE52
:1058B0000E941C6F0E94B56E8AE00E94786E8FE095
:1058C000D2018C9381E00E94786E8EE6D2018C9397
:1058D00081E00E94786E82E0D2018C9381E00E9488
:1058E000786E80E090E0D2018D939C9382E00E94DC
:1058F000786E80E090E1D2018D939C9382E00E94CB
:10590000786E0E944F152C9681E10E94746ED20130
:10591000ECE8F4EE0E941C6F0E94B56E85E00E94D8
:10592000786E8FE0D2018C9381E00E94786E82E8DD
:10593000D2018C9381E00E94786E82E0D2018C9338
:1059400081E00E94786E80E090E0D2018D939C937C
:1059500082E00E94786E80E090E1D2018D939C936A
:1059600082E00E94786E0E944F152C968CE00E9477
:10597000746EAAECB2E20D911C91053050E015074F
:1059800018F011F00C94C62C0C94CC2C85E090E00F
:10599000AAECB2E28D939C93AAECB2E20D911C9119
:1059A000003050E0150711F00C94DC2C81E090E001
:1059B000AAECB2E28D939C938091CA2280936F26C9
:1059C00000916F2644E1049FA0E7B6E20C92A0E7A5
:1059D000B6E28C918D5D8C9340917026009171267A
:1059E000041711F40C94152D87E0D2018C9381E0FB
:1059F0000E94786E80917126D2018C9381E00E9482
:105A0000786E84E0D2018C9381E00E94786E8FEFF3
:105A10009FEFD2018D939C9382E00E94786E0E944A
:105A2000A911289685E00E94746EAAECB2E20D914D
:105A30001C91063050E0150710F00C94402D87E0C3
:105A4000D2018C9381E00E94786E80917026D20101
:105A50008C9381E00E94786E84E0D2018C9381E087
:105A60000E94786E80E090E0D2018D939C9382E05A
:105A70000E94786E0E94A911289685E00E94746E9B
:105A80008091702680937126AAECB2E20D911C9150
:105A9000043050E0150781E009F080E08F93A9EC15
:105AA000B2E28C9187FB81E00EF080E09F91892328
:105AB000882311F40C94642D84E080936B267091FC
:105AC0006C267F7770936C26AAECB2E20D911C9144
:105AD000033050E0150781E009F080E08F93A9ECD6
